:020000040800F2
:100000006807002035020008772A0008F528000854
:10001000752A0008BB1B0008732C000800000000B4
:100020000000000000000000000000007B2A000823
:10003000BD1B000800000000792A00087D2A000886
:100040004F0200084F0200084F0200084F0200084C
:100050004F0200084F0200084F0200084F0200083C
:100060004F0200084F0200084F0200084F0200082C
:100070004F0200084F0200084F0200084F0200081C
:100080004F0200084F0200084F0200084F0200080C
:100090004F0200084F0200084F0200084F020008FC
:1000A0004F0200084F0200084F0200084F020008EC
:1000B0004F0200084F0200084F0200084F020008DC
:1000C0004F0200084F0200084F0200084F020008CC
:1000D0004F0200084F0200084F0200084F020008BC
:1000E0004F0200084F0200084F02000800F002F81B
:1000F00000F090F80AA090E8000C82448344AAF132
:100100000107DA4501D100F085F8AFF2090EBAE82F
:100110000F0013F0010F18BFFB1A43F0010318473B
:10012000902D0000B02D0000103A24BF78C878C18F
:10013000FAD8520724BF30C830C144BF04680C60ED
:10014000704700000023002400250026103A28BF35
:1001500078C1FBD8520728BF30C148BF0B60704739
:100160006E2900F06981702900F0B382662902F0DF
:100170000786652902F00486672902F00186612955
:1001800002F0008603681B0A28BF41F0800169293C
:1001900000F01681642900F01381752900F01081A8
:1001A0006F2900F04082782900F07F82E92900F071
:1001B000DB81E42900F0D881F52900F0D581EF2911
:1001C00000F03D82F82900F07E820368DB0928BF39
:1001D00041F08001632900F08187732900F0868750
:1001E000E32900F09187F32900F0968700207047FB
:1001F0001FB500F0E3FF04000020002102F0AAFD7B
:10020000401C60600020002102F08EFDE0601FBDF8
:1002100010B510BD00F0A4FF1146FFF7E9FF02F092
:1002200055FD01F081F803B4FFF7F2FF03BC01F0C4
:10023000C9F800000948804709480047FEE7FEE783
:10024000FEE7FEE7FEE7FEE7FEE7FEE7FEE7FEE786
:1002500004480549054A064B70470000F92A000882
:10026000ED000008680100206807002068030020F6
:10027000680300207CB51D4616460C00009001D096
:100280002044401E074B7B442A4669460190304675
:1002900000F0EBF805461CB10020694600F0F8F8C4
:1002A00028467CBD110200004FF0000200B5134645
:1002B00094469646203922BFA0E80C50A0E80C5086
:1002C000B1F12001BFF4F7AF090728BFA0E80C5037
:1002D00048BF0CC05DF804EB890028BF40F8042B30
:1002E00008BF704748BF20F8022B11F0804F18BF9D
:1002F00000F8012B704770477047704770B504468F
:1003000085690068C10601D5302600E02026C007B7
:1003100007D070BDD4E9012130469047206A401CC7
:1003200020626D1EF6D570BD70B5044685690078F3
:10033000C00707D170BDD4E9012120209047206A71
:10034000401C20626D1EF6D570BD09684A0501D5B6
:1003500040B27047C905FCD500B2704709684A052C
:1003600001D5C0B27047C905FCD580B2704770B5E1
:100370000C460546012A05D02878800600D5EA6992
:10038000002302E0012305E05B1C934202D2E05C03
:100390000028F9D1A869E618C01AA861286A18448B
:1003A00028622846FFF7AAFF04E0D5E9012114F8E6
:1003B000010B9047B442F8D32846FFF7B5FF70BD54
:1003C0002DE9F0410646002410687529314616A52E
:1003D00010D0FFF7BAFF002802DA404213A507E069
:1003E00031688A0701D512A502E0490704D511A595
:1003F000012401E0FFF7B2FF00210A2206F12407E1
:1004000009E0B0FBF2FCB0FBF2F302FB1C00303061
:1004100078541846491C0028F3D123462A46304612
:10042000BDE8F04100F069BA000000002D000000B6
:100430002B0000002000000011680268006A5305CC
:1004400001D508700AE0D30501D5088006E013063F
:1004500003D5C217C1E9000200E00860012070471F
:1004600001694A1C02610878704700B58FB0CDE978
:1004700001310021059105497944CDE90310114668
:10048000684600F031F90FB000BD0000E5FFFFFF46
:100490000A6802F8010B0A607047D1E900239A420A
:1004A00002D2531C0B601070704700002DE9FF5FF3
:1004B00015468A460446DFF8AC80F8440027D8E9A0
:1004C00000103E46CDE9001010E03AF816106A46DA
:1004D00002A800F025FE411C07D02178890603D52B
:1004E000E269391891420DD80744761C20788006BD
:1004F00002D5E069B84205DDAE42E6DB3AF8160007
:100500000028E2D1A069C01BA0612046FFF7F6FEDB
:10051000D8E90010CDE90010002017E03AF81810D3
:100520006A4602A800F0FCFDB0F1FF3F81460BD007
:1005300000250DF1080B05E0D4E901211BF80500A9
:1005400090476D1C4D45F7D308F10100B04280463D
:10055000E4DB206A384420622046FFF7E5FEBDE870
:10056000FF9F0000F62800002DE9F0418046D21DD3
:1005700022F007020025D2E90002F52915A614D0C1
:10058000011E72F1000106DA0023D0EB030063EBD9
:10059000020211A608E0D8F800108B0701D50FA6BB
:1005A00002E0490701D50EA601251146002408F1F5
:1005B000240704E000F05CF930323A55641C50EA3C
:1005C0000102F7D12B46324621464046BDE8F041B4
:1005D00000F093B9000000002D0000002B00000087
:1005E0002000000030B4002100F1240408E002F0F3
:1005F0000705D208303542EA4372DB086554491CCE
:1006000052EA0305F3D10468002310A2250707D599
:10061000A40600D421B1C46901230DA2641EC461E3
:1006200030BC00F06AB910B5044621461068FFF7E7
:1006300095FE02462046BDE810400023D2E7D21DB9
:1006400022F00701D1E90023CCE700000000000000
:1006500030000000F0B40D460188090502D5214C98
:100660007C4402E01F4C7C440E34002100F124063F
:1006700008E002F00F071209E75D42EA03721B0966
:100680007754491C52EA0307F3D10278002312077A
:1006900004D5702D06D009B1022311342246F0BCD6
:1006A00000F02BB901231034F8E770B504460D466D
:1006B00021461068FFF752FE024629462046BDE853
:1006C00070400023C6E7D21D22F00703D3E90023C0
:1006D000C0E70368126843F0200303600823C36186
:1006E0000023B7E7582700002DE9F05F894604464C
:1006F0004FF0000ADFF874B1FB44C0F820A0204698
:10070000E1688847002874D0252806D0D4E9012163
:100710009047206A401C2062F1E700265F46204691
:10072000E16888472028054607DB312D05D2781976
:1007300010F8200C08B10643F1E7B00701D526F008
:100740000406C4F81CA00027C4F818A02A2D09D05C
:10075000284602F0B3FA38B304EB8708303DC8F8F6
:10076000185019E059F8041B204604EB87029161E8
:10077000E1688847012F054618D1E069002820DA92
:1007800026F020061DE0D8F8180000EB800005EBED
:1007900040003038C8F818002046E1688847054610
:1007A00002F08CFA0028EED1012F0AD02E2D08D1AC
:1007B0002046E16888477F1C0546022F46F0200648
:1007C000C4DBA069002803DA404246F00106A061BC
:1007D000F00701D026F010066C2D0BD0682D09D043
:1007E0004C2D39D06A2D35D0742D35D07A2D33D09B
:1007F00016E038E0E1682F4620468847B8420546B3
:1008000009D16C2F26D04FF48060E1680643204662
:100810008847054604E06C2F1AD04FF480700643D9
:100820000DB3A5F14100192802D8203546F4006621
:100830004A462946204626604E46FFF791FC80B185
:1008400001280BD0F61D26F0070000F1080956E735
:100850004020E4E78020D8E70020D6E706F104092D
:100860004DE7284652E7206ABDE8F09FE8260000E1
:1008700030B5B0F10A024FEA900E71F100034EEA72
:10088000817EB0EB0E0061EB91014FEA101E4EEA43
:10089000017E10EB0E0041EB11114FEA102E4EEAD3
:1008A000016E10EB0E0041EB11214FEA104E4EEAA3
:1008B000014E10EB0E0041EB1141401841F10001D7
:1008C0004FEAD00040EA41704FEAD10110EB8005B9
:1008D0004FEA810444EA907444EB01046D1944EB3F
:1008E0000404521BA3414FF0000348BF0A3200D555
:1008F00030BD401C41F1000130BD2DE9F0470D46EF
:1009000099469246044600F124080168880604D5F9
:10091000E06921F01001216000E00120A84201DD22
:10092000471B00E00027A1697A1902EB0900081AA9
:10093000A0612078C00602D42046FFF7DFFC002625
:1009400008E0D4E901211AF806009047206A401C0B
:10095000761C20624E45F4DB2078C0060AD520467E
:10096000FFF7CCFC06E0D4E9012130209047206A53
:10097000401C2062381EA7F10107F4DC07E0D4E92F
:10098000012118F805009047206A401C2062281EAB
:10099000A5F10105F3DC2046FFF7C6FC2078000630
:1009A00002D50220BDE8F0870120FBE770472DE962
:1009B000FF4F0C461E464FF0FF378BB0D2E90001C7
:1009C000DDF860800A908A46C1F30A5505B93D46B4
:1009D000002108464FF00000BAF1000F00F440007B
:1009E00005DA00EB80004FF4400101EA50004FEAC5
:1009F0009059B9F1010F00DDB9460A9850EA4A0052
:100A00000ED044F61050A5F2FF3545432F14B8F12F
:100A1000000F1ED07542291E1EDDC9F100021CE028
:100A2000B8F1010F4FF0000001D0302103E0F24394
:100A300005E02154401CB042FBDB3046002200217F
:100A400021540B99C1F80880C1E900200FB0BDE81E
:100A5000F08FBD1B6D1CDEE74A4600DA694206A82E
:100A600000F0F0FB06AB93E8070003AB83E8070058
:100A700050460A9900F0ADFC8DE80700A0F5005043
:100A80001F3800900398002D0ADD42F21F014A46EC
:100A90000844002303A90390684600F016FF09E00C
:100AA000A0F500504A461F38002303A9039068466A
:100AB00000F020FF8DE807000004000C03D04FF089
:100AC000FF30410800E01046B8F1000F03D00022CB
:100AD000009215461EE0751E05D4FFF7C9FE3032A0
:100AE00062556D1EF9D5B3460122084302D000229B
:100AF0007F1C04E02078302801D100227F1E002ACC
:100B0000099784D01DE0112D07DAFFF7B1FE3032CE
:100B100062556D1C50EA0102F5D1084302D00098DD
:100B2000C8B10EE00021681E05E0235C625C6354DE
:100B30002254401E491C8142F7DBAB46A81B401ED5
:100B40000990002004F80B000B98099AC0F808805F
:100B5000C0E9002B7AE711264FF0000857E72DE98E
:100B6000F04F88460446D21D22F0070191B0D1E92A
:100B70000001CDE90A0102F07DF802460B98C00F92
:100B800001D02D2007E02068810701D52B2002E04D
:100B9000202101EAC000032A099001D0072A05DBC1
:100BA00003464146204600F00DFB0BE1207880060D
:100BB00001D5E06900E00620B8F1650F814606D056
:100BC000B8F1660F18D0B8F1670F70D131E000208E
:100BD000B9F1110F009001DB112301E009F10103CC
:100BE0000AAA01A90CA8FFF7E2FEDDE90C700026B5
:100BF00009F10105834647E001204B4600904FF084
:100C000000470AAA01A90CA8FFF7D1FEDDE90DB043
:100C10000C995D46002610B909F101000D18B9EBD9
:100C2000050003D4C0F1FF3609F10105A5EB090069
:100C30002BE0B9F1010F01DA4FF001090020B9F101
:100C4000110F0090484601DD112300E003460AAA77
:100C500001A90CA8FFF7ABFEDDE90C704D4600269C
:100C60008346207800070AD4AB4500DA5D4601A828
:100C7000012D04DD411911F8011C302907D04F4521
:100C800002DA17F1040F04DA012082460FE06D1E2C
:100C9000EEE7002F02DCED1B3E4403E0781CA84287
:100CA00000DD7D1CB81B00F1010A4FF000472078E1
:100CB000000703D4AA4501DB4FF0FF3A0021B7F14A
:100CC000004F0DF143088DF8431024D002202B2350
:100CD000002F01DA7F422D230A21021EA0F101001C
:100CE00000DC5FB197FBF1FC97FBF1F201FB1C7C90
:100CF00017460CF1300C08F801CDEEE7A8F1010021
:100D000003702188090501D5452100E06521A0F186
:100D1000010800F8011C09980FA9A1EB0807FF1DA5
:100D200000B10120411901EBEA70A1693844081AA9
:100D3000401EA0612078C00602D42046FFF7DEFAEC
:100D4000099828B1D4E901219047206A401C20620B
:100D50002078C00622D52046FFF7D0FA1EE0002EEC
:100D600004DBB34502DD01A8805D00E03020D4E95A
:100D700001219047206A401C2062761CAAF10100E4
:100D80005FEA000A0AD100F019FAC0680168405C05
:100D9000D4E901219047206A401C2062281EA5F159
:100DA0000105DCDC07E0D4E9012118F8010B9047CC
:100DB000206A401C2062381EA7F10107F3DC2046A0
:100DC000FFF7B2FA032011B041E600002DE9F04F21
:100DD00004460D46D21D22F0070089B0D0E90097E5
:100DE0004846394601F046FF0246F80F01D02D2350
:100DF00007E02068810701D52B2302E0202101EACA
:100E0000C0038DF820300BB1012000E00020032A40
:100E1000824601D0072A04DB2946204600F0D2F999
:100E20003FE12078800601D40D2500E0E569C7F395
:100E30000A560D2D49DA00214FEA175B08464FF09C
:100E40000000002F00F4400007DA00EB80004FF4B0
:100E5000400100EBD07001EA60008115012901DD3D
:100E60004FF0FF3100224FEA850CBCF1180F06D37A
:100E70001346ACF118004FF08052C24003E04FF42B
:100E8000801323FA0CF30CF10C0CBCF1200F04D3EB
:100E9000ACF1200C09FA0CF001E007FA0CF0002983
:100EA0004FF0004801DD18B90FE00ED140450CD3DA
:100EB00019EB02095F4121B9404502D19F4329EA5C
:100EC0000209BBEB175F00D0761C2088000502D515
:100ED0007B48784402E07A487844193808AA3023DD
:100EE00002F80A30037C0AF10101002E0AF1020A1D
:100EF00053546A4602DC4FF0300101E04FF03101FB
:100F00004FF001088DF8001002D0A6F2FF3603E082
:100F100059EA470100D06B4E002D02DC2178090709
:100F200004D54FF002082E218DF80110C44600218F
:100F30000BE0C7F303433F01C35C491C6D1E02F87D
:100F40000830052908F1010801DA002DF1DC002143
:100F50000CE000EB1973491C1B786D1E082902F880
:100F600008304FEA091908F1010801DA002DF0DC18
:100F700021688B0602D516E0A8F10108E04505DDE1
:100F800002EB080313F8013C302BF5D0B8F1000F49
:100F900009DD02EB080313F8013C2E2B03D10907EE
:100FA00001D4A8F10108002D05DD3E2102F808104A
:100FB0006D1E08F10108407C002E02F8080008F1BF
:100FC000010804DA2D20764202F8080002E02B2006
:100FD00002F808000A214FF47A70864208F10108ED
:100FE0000BDB96FBF0F3303302F8083096FBF0F39E
:100FF00008F1010800FB136601E0642E0CDB64209D
:1010000096FBF0F3303302F8083096FBF0F308F16A
:10101000010800FB136601E00A2E06DB96FBF1F0E7
:10102000303002F8080008F1010896FBF1F001FBEE
:101030001060303002F80800A16908F1010808EBDF
:10104000050202EB0A00081AA0612078C00602D44B
:101050002046FFF753F9216A08AE01EB0A0020622F
:1010600004E0D4E9012116F8010B9047BAF1010A16
:10107000F7D22078C00602D52046FFF73FF96E462A
:1010800009E016F8010B3E280FD0D4E90121904762
:10109000206A401C2062B8F10108F2D22046FFF716
:1010A00043F909B00320BDE8F08F206A284420628C
:1010B00003E0D4E90121302090476D1EEBD3F8E71F
:1010C000321F000002FCFFFF10B5436913B1AFF3FC
:1010D000008001E0FFF74BF9012010BD127800F10C
:1010E00024010A7000224A700122EDE711684FF0D6
:1010F000FF32E9E710B5436913B1AFF3008001E0B7
:10110000FFF7D4F9012010BD128800F12401828478
:101110000022C2840122EDE711684FF0FF32E9E7B7
:1011200070B516460C46054600F040F8036893F883
:101130000101012806D0FF2C0FD8185D68B10120ED
:101140002C7070BDD3F807013246214603F2071315
:1011500003442846BDE8704018474FF0FF3070BD8B
:10116000754600F0EBF8AE4605006946534620F0A0
:101170000700854618B020B5FFF76AF8BDE82040A3
:101180004FF000064FF000074FF000084FF0000B43
:1011900021F00701AC46ACE8C009ACE8C009ACE8F6
:1011A000C009ACE8C0098D467047000010B500F0DA
:1011B00005F8001D10BD00BF9D1B000000487047D2
:1011C000280100202DE9F0411F460446032601684E
:1011D000072A01F4006004DB08B116A505E016A596
:1011E00003E008B115A500E015A521F0100020606E
:1011F000A069C01EA0610FB1401EA0612046FFF78C
:101200007DF84FB1D4E9012138469047206A401C4F
:101210002062C01C206206E0206AFAE7D4E90121BE
:1012200015F8010B9047761EF8D22046FFF77CF8A0
:10123000BDE8F0814E414E006E616E00494E4600A1
:10124000696E66002DE9F047814616468AB035483A
:1012500078440DC88DE80D0032487844801C03ACFA
:101260000DC884E80D0041F69B300844372190FBFF
:10127000F1F290FBF1F5A5F1800501FB12041B3C96
:1012800002D56442012000E00020DFF898A08046EB
:101290000027FA44AAF1BE0A0EE0E0070AD032465F
:1012A000684607EB470101230AEB810100F022FBAE
:1012B0008DE8070064107F1C002CEED1194F7F448D
:1012C000AE3F19E0E80715D007EB04100DF1180A3E
:1012D00090E80E008AE80E00C068F04201D198192B
:1012E00008903246012306A903A800F003FB03ABD4
:1012F00083E807006D10641C002DE3D14FF001035B
:1013000032466946B8F1000F03A802D000F0DDFABA
:1013100001E000F0EFFAC9E90001C9F808200AB0BD
:10132000BDE8F087441C000010B50446AFF3008010
:101330002046BDE81040FEF776BF00000048704729
:10134000080100204FF0013C50F8042B51F8043BF9
:101350009A4221D1A2EB0C03934313EACC1317D189
:1013600050F8042B51F8043B9A4215D1A2EB0C0320
:10137000934313EACC130BD150F8042B51F8043BE0
:101380009A4209D1A2EB0C03934313EACC13DBD0AE
:101390004FF00000704700BFD01A01BAB1FA81F1D6
:1013A00001F0180122FA01F0CB40C1F12001DBB2BB
:1013B000C0B2C01A2CFA01F3D11A914311EAC31139
:1013C000E6D1704701491820ABBEFEE726000200B7
:1013D00070475FEA400C08BF91F0000F4FEA8C2382
:1013E0004FEAC12243EA51514FEA1C5018BF00F5A1
:1013F000F0404FEA300018BF41F000415FEA6C5CFA
:1014000000F02980BCF1FF3F08BF40F080407047EA
:10141000130C06BF12044FF0100C4FF0000C130E0B
:1014200004BF12020CF1080C130F04BF12010CF1DF
:10143000040C930F04BF92000CF1020CD30F04BFF5
:1014400052000CF1010C11464FF00002A0F11F00F8
:10145000A0EB0C00704711F0004F08BF704731F04F
:1014600000413FF4D5AF0B0C06BF09044FF0100C40
:101470004FF0000C0B0E04BF09020CF1080C0B0F0F
:1014800004BF09010CF1040C8B0F04BF89000CF19F
:10149000020CCB0F04BF49000CF1010CCCF120036E
:1014A000A0EB0C0022FA03F302FA0CF241EA03016A
:1014B00000F10100704720F07F4C80EA030023F028
:1014C0007F47ACEB070303F57C5300F0004003F1CA
:1014D000FF032DE980494FEA154B09B44FEA144345
:1014E00025EA0B4E24EA03480FF2042606EB1327E5
:1014F00049083E785FEA320203FB0667C7F500073A
:1015000007FB06F64FEA54374FEAD64606F10206C5
:1015100007FB066CCCF1005C4FEA1C472CEA074C39
:1015200007FB06F40CFB06F504EB15464FEA96168E
:1015300034BF00204FF000404FEAD13706FB07FCD4
:101540004FEA1C4C0CFB0BF7D21B03FB0CF761EBB7
:1015500007010CFB0EF7B0EB074072EB17420CFBD8
:1015600008F734BFA2EB0742B2EB074261EB174129
:101570004FEA0C444FEA910706FB07FC4FEA1C4C6C
:101580000CFB0BF7B0EBC74072EB573203FB0CF7C9
:1015900034BFA2EBC742B2EBC74261EB57310CFB41
:1015A0000EF7B0EBC70072EB57720CFB08F734BFB5
:1015B000A2EBC702B2EBC70261EB5771039F4FEA80
:1015C000816141EA921104EBCC044FEAD1374FEA32
:1015D000826206FB07FC42EA90124FEA80604FEA03
:1015E0001C4C0CFB0BF7D21B03FB0CF761EB070148
:1015F0000CFB0EF7B0EB074072EB17420CFB08F741
:1016000034BFA2EB0742B2EB074261EB17414FEA4E
:101610008C554FEA910704EB9C2406FB07FC4FEA2C
:101620001C4C0CFB0BF7B0EBC74072EB573203FBC3
:101630000CF734BFA2EBC742B2EBC74261EB5731A4
:101640000CFB0EF7B0EBC70072EB57720CFB08F700
:1016500034BFA2EBC702B2EBC70261EB577115EBC7
:101660004C254FEA816141EA92114FEA82624FEACA
:10167000D13742EA901206FB07FC44F100044FEA1E
:1016800080604FEA1C4C0CFB0BF7D21B03FB0CF7E2
:1016900061EB07010CFB0EF7B0EB074072EB174252
:1016A0000CFB08F734BFA2EB0742B2EB074261EB39
:1016B000174115EB1C154FEA813141EA92414FEA7F
:1016C000823242EA90424FEA80304FEA0C7644F18F
:1016D000000448EA03434EEA0B484FF0000EB2EB19
:1016E000080C71EB030724BF624639464EEB0E0E21
:1016F0004FF0000B0018524149414BEB0B0BB2EB82
:10170000080C71EB03077BF1000B24BF62463946DE
:101710004EEB0E0E4FF0000B0018524149414BEBBF
:101720000B0BB2EB080C71EB03077BF1000B24BF32
:10173000624639464EEB0E0E51EA020718BF46F0DC
:10174000010616EB0E7655F1000254F1000103D5A7
:10175000BDE88901BDE80088BDE88901BDE8004811
:10176000B619524141EB0101A3F10103704780809A
:101770007F7E7D7C7B7A79787776767574737271EB
:1017800071706F6E6E6D6C6C6B6A6A6968686766A3
:1017900066656464636362616160605F5F5E5E5D35
:1017A0005D5C5C5B5B5A5A595958585757565655A9
:1017B00055555454535352525251515050504F4F0B
:1017C0004F4E4E4D4D4D4C4C4C4B4B4B4A4A4A495B
:1017D000494948484847474747464646454545449E
:1017E0004444444343434342424242414141002B2B
:1017F0009C4630D477002BD01CB54FEA370703B492
:101800004FF010004FF01001BAF1000F06D0BCF1FC
:10181000000FDCBF40F0080040F008014FF000006E
:101820000FBCBDE810400BF1010BBBF1010F08BF6D
:101830005FEA170722BF12F1010211F101014FF017
:10184000004143F1000300F0004043EA000070470C
:10185000F9D35708D0E746EA064613F1400F4FEA9E
:1018600016461FDD13F1200FDFBF16430A46002185
:1018700020335B42BED0C3F1200746EA064602FA97
:1018800007F74FEA164646EA0706C3F1200722FA91
:1018900003F201FA07F721FA03F14FF0000342EADD
:1018A0000702A7E746EA020646EA06464FEA164658
:1018B00046EA0106BCBF46EA0646360C4FF0000376
:1018C0004FF000024FF0000194E72DE9804C9A465A
:1018D000934670B491E8380007C831EA400C48BF1D
:1018E00034EA430C03D5FFF7E6FDFFF780FFF0BCB9
:1018F000BDE8008C2DE9804C9A46934670B491E87F
:10190000380007C810F0804F08BF13F0804F03D194
:1019100000F005F8FFF76BFFF0BCBDE8008C20F08D
:101920007F4780EA030023F07F4C07EB0C03A3F50D
:101930007C5300F00040A3F1FE0392F0000F00F092
:10194000B38095F0000F00F077802DE901494FEA50
:1019500011404FEA144621EA004800FB06FC24EA45
:10196000064708FB06F607FB08F800FB07F718EB2D
:1019700006484CEB164C4FEA124B18EB07484FEA5F
:1019800015464CEB174022EA0B4E0BFB06FC25EAF2
:1019900006470EFB06F607FB0EFE0BFB07F71EEBDA
:1019A000064E4CEB164C4FF000061EEB074E4CEB70
:1019B000174B18EB0B0840F1000018EB0E0B58EB1F
:1019C000000840F100008F1A4FF000013CBFC943EE
:1019D000661B14BFB5EB040C00213CBFC943F61BCA
:1019E0004FEA17444EEA8E0E27EA04454FEA1C4799
:1019F00004FB07622CEA074C05FB07F70CFB05F616
:101A000004FB0CFC16EB074642EB174216EB0C46A8
:101A100042EB1C421BEB060658EB0202414146EA30
:101A20009E0601D5BDE80189B619524141EB01017D
:101A3000A3F10103BDE801894FEA14454FEA1147BC
:101A400024EA054621EA074C05FB07F406FB07F7E5
:101A50000CFB06F105FB0CFC11EB074144EB1744B2
:101A60004FEA124711EB0C4144EB1C4422EA074CAD
:101A700005FB07F206FB07F70CFB06F605FB0CFC63
:101A800016EB074642EB174216EB0C4642EB1C45A1
:101A90006A1854F1000148BF7047B619524141EB32
:101AA0000101A3F10103704795F0000F37D04FEA11
:101AB00011424FEA144721EA024624EA074C02FB8E
:101AC00007F106FB07F70CFB06F402FB0CFC14EB1A
:101AD000074441EB17414FEA154714EB0C4441EB27
:101AE0001C4125EA074C02FB07F506FB07F70CFB38
:101AF00006F602FB0CFC16EB074645EB174516EB0A
:101B00000C4645EB1C42121951F1000148BF7047C9
:101B1000B619524141EB0101A3F1010370474FEAAD
:101B200014454FEA114724EA054621EA074C05FB14
:101B300007F106FB07F70CFB06F24FF0000605FB6A
:101B40000CFC12EB074241EB174112EB0C4251EB3C
:101B50001C4148BF7047921841EB0101A3F10103FA
:101B60007047000070B5044600688168C943C90722
:101B700017D1816821F00101816000F07BFA0546F0
:101B80000AE000BF00F076FA401B022804D9206862
:101B90008068C043C00706D020688068C043C00783
:101BA000F0D0002070BDA06A40F01000A062E06A92
:101BB00040F00100E062012070BDFEE770470000C8
:101BC0000FB4802110B503AB0748029AFEF752FB11
:101BD000002805DD82B264230349044800F03AFE80
:101BE00010BC5DF814FB00008800002040000020BD
:101BF00072B6FEE7F8B50024009490F8242025463C
:101C0000012A12D0012280F824204A681F23072AC3
:101C10000DD20668776B521E02EB820293409F43FF
:101C20000B6893401F43776319E00220F8BD0668F4
:101C30000D2A0AD2376BD21F02EB820293409F43D8
:101C40000B6893401F43376309E0F76A0D3A02EBD4
:101C5000820293409F430B6893401F43F7620A68D8
:101C6000072306680A2A0AD3F7680A3A02EB4202F7
:101C700093409F438B6893401F43F76008E03769A8
:101C800002EB420293409F438B6893401F433761AE
:101C90000A68102A01D0112A20D1124B02689A42F8
:101CA00017D193681B0219D4936843F4000393601F
:101CB0000968102912D10C490C4A0968B1FBF2F1EC
:101CC00001EB8101490000E0491E00910029FBD190
:101CD00004E0816A41F020018162012480F82450EF
:101CE0002046F8BD002401400C00002040420F00B7
:101CF0002DE9F0414FF0000704003D467ED0A06A78
:101D0000002628B9E66284F82460204600F07EF8B8
:101D10002046FFF727FFA16AC90600D420B1A06AB8
:101D200040F01000A06269E0A16A21F4885141F0FE
:101D30000201A1626268E169237B0A4347EA430129
:101D40000A43A1684FF48077B94209D0012907D02E
:101D50005FF0000194F814C0BCF1010F02D00AE05A
:101D60003946F7E7F3B1A36A43F02003A362E36ABD
:101D700043F00103E3622368D3F804C02CF4694CF8
:101D80004CEA010CC3F804C021688B68DFF870C00E
:101D900003EA0C0313438B60A168B9420BD00129FD
:101DA00009D00CE0DFF85CC0A3690CEB43330B43B4
:101DB00043F40061DFE7218A0D05A5F58015216850
:101DC000CB6A23F470032B43CB62216889680E4BE6
:101DD0001940914208D1E662A16A21F0020141F066
:101DE0000101A162BDE8F081A06A20F0020040F08C
:101DF0001000A062E06A40F00100E0620120F1E71B
:101E0000FDF7E1FF00E0FFFFFE0E1FFF00B585B00C
:101E10000021009101910291039100680E498842CE
:101E200018D10E48816941F400718161816901F422
:101E300000710491816941F0040181618069694602
:101E400000F004000490402000900320019004481A
:101E500000F01AF805B000BD002401400010024057
:101E60000008014070B5044600F004F90546601C06
:101E700002D004480078044400F0FCF8401BA04263
:101E8000FAD370BD000000202DE9F84FDFF8B891BB
:101E90000024A9F1040B23460F2709F1040AABF132
:101EA000040EC9E00125A5402A40AA427DD1674E13
:101EB000D1F804C0ACEB0608B44532D014DCBCF158
:101EC000030F3AD009DCBCF1000F2AD0BCF1010F9E
:101ED0001CD0BCF1020F31D11DE0BCF1110F17D0A5
:101EE000BCF1120F2AD119E0B8F5881F19D006DC11
:101EF000B8F5803F15D0B8F5801F1FD111E0B8F5B7
:101F0000001F0ED0B8F5041F18D10AE0CB6815E009
:101F1000CB681B1D12E0CB6808330FE0CB680C3395
:101F20000CE08B682BB1012B4FF0080303D0456107
:101F300004E0042302E0056100E00023FF2A01D849
:101F4000064601E000F104064FEA840501D9A5F137
:101F50002005D6F8008007FA05FC28EA0C0803FAE9
:101F600005F548EA0508C6F800804D68ED0062D521
:101F7000374DAE6946F00106AE61AD6924F0030647
:101F800005F001050095334D06EB050CDCF8085013
:101F9000A607360F07FA06F825EA0805DFF8B88025
:101FA000404503D14FF0000817E044E0DFF8AC8073
:101FB000404502D14FF001080FE0DFF8A480404512
:101FC00002D14FF0020808E0DFF89880404502D1C6
:101FD0004FF0030801E04FF0040808FA06F848EA59
:101FE0000508CCF808804D68D9F80060ED024D4630
:101FF00001D5164300E096432E604D68DAF8006084
:10200000AD02554601D5164300E096432E604D685B
:10201000DBF80060AD035D4601D5164300E0964352
:102020002E604D68DEF80060ED03754601D516435D
:1020300000E096432E60641C0D682A46E5407FF45C
:1020400031AFBDE8F88F0000080401400000111016
:10205000001002400000014000080140000C014057
:1020600000100140001401400AB1016170470904E9
:10207000FBE7000001488068704700000000002076
:102080000248816802781144816070470000002096
:10209000074810B5016841F010010160032000F00D
:1020A00067F80F2000F006F800F024F8002010BDBB
:1020B0000020024070B50D4D04464FF47A71287827
:1020C000B1FBF0F00A490968B1FBF0F000F044FB05
:1020D00048B9102C07D200222146501E00F028F8E3
:1020E00000206C6070BD012070BD00000000002069
:1020F0000C0000200C4808B5816941F001018161A4
:10210000816901F001010091C16941F08051C16113
:10211000C06900F0805000900448416821F0E061FF
:1021200041F00071416008BD001002400000014014
:10213000F0B40E4B1B680C46C3F30223C3F1070532
:10214000042D00D90425191D072901D2002300E020
:10215000DB1E012606FA05F1491E214099409E40EA
:10216000761E16403143F0BC00F098BD0CED00E047
:10217000064900F0070208684FF6FF03184040EADE
:102180000220034A10430860704700000CED00E095
:102190000000FA052DE9F84305460078354CC007E4
:1021A00054D0E0690026C00008D4E06940F08050B7
:1021B000E061E069012600F0805000902E4801683F
:1021C000C90512D40168804641F480710160FFF7AF
:1021D00051FF074605E000BFFFF74CFFC01B642816
:1021E00023D8D8F80000C005F6D5206A10F4407056
:1021F00021D0A98801F4407181421CD0206A1F4976
:10220000012220F440700A6000220A602062C007A8
:1022100011D0FFF72FFF074641F2883808E000BFD2
:10222000FFF728FFC11B414502D90320BDE8F88311
:10223000206A8007F4D5206A696820F4407008435A
:1022400020621EB1E06920F08050E06128788007AC
:1022500005D56068A96820F440400843606028788C
:10226000C00605D56068E96820F480000843606016
:102270000020DBE7001002400070004040044242B2
:102280002DE9F0470F46050061D0434E306800F05D
:102290000700B84209D2306820F0070038433060A8
:1022A000306800F00700B84251D128683B4C8107E4
:1022B00012D5400703D5606840F4E060606028787C
:1022C000000703D5606840F4605060606068A968EA
:1022D00020F0F000084360602878C00728D06868C4
:1022E000012810D02168022810D0890700292EDA91
:1022F000616821F0030101436160FFF7BBFE804686
:1023000041F288390DE021688903EFE78901EDE7A3
:10231000FFF7B0FEA0EB0801494502D90320BDE854
:10232000F0876068696800F00C00B0EB810FEFD1B6
:10233000306800F00700B8420BD9306820F0070081
:1023400038433060306800F00700B84201D0012007
:10235000E5E72878400705D56068E96820F4E06083
:10236000084360602878000706D56068296920F472
:10237000605040EAC100606000F038F86168084AC7
:10238000C1F30311515CC840064908600648006863
:10239000FFF790FE0020C2E700200240001002403C
:1023A0009A2D00080C000020040000200448054974
:1023B00000684968044AC1F30221515CC840704773
:1023C0000C00002000100240AA2D00080448054916
:1023D00000684968044AC1F3C221515CC840704793
:1023E0000C00002000100240AA2D00080E4A51687F
:1023F0000E4801F00C03042B11D0082B0FD10C4810
:10240000C1F38343C903C05C0AD55168084AC1F3CC
:102410004041921E515C054A5043B0FBF1F07047B9
:1024200004494843704700000010024000127A003F
:102430008A2D000800093D002DE9F84F040070D0F6
:102440002078C04DC00749D06868C0F381000128DA
:1024500007D06868C0F38100022809D16868C0030A
:1024600006D52868800339D560680028E7D035E0B4
:102470006068B0F5803F0BD010B1B0F5A02F11D03F
:10248000286820F480302860286820F4802002E04A
:10249000286840F480302860606890B1FFF7EAFD5A
:1024A00006460AE0286840F480202860F0E700BF74
:1024B000FFF7E0FD801B642873D828688003F7D5F8
:1024C0000CE0FFF7D7FD064605E000BFFFF7D2FDA1
:1024D000801B6428F0D828688003F7D420789A4EAF
:1024E00080074FF001094FF0000839D5686810F0F7
:1024F0000C0F07D06868C0F38100022809D1686812
:10250000C00306D42868800714D52069012808D1A3
:1025100010E02069B0B1C6F80090FFF7ABFD0746A8
:1025200005E00AE1FFF7A6FDC01B0228C4D8286811
:102530008007F7D52868616920F0F80040EAC100FB
:1025400028600DE0C6F80080FFF794FD074604E020
:10255000FFF790FDC01B022823D828688007F7D416
:10256000207800072CD57948A169D9B1C0F800902E
:10257000FFF780FD074604E0FFF77CFDC01B022843
:102580000FD8686A8007F7D571484FF4FA51006890
:10259000B0FBF1F0009000BF0098411E0091FAD20C
:1025A0000EE080E0C0F80080FFF764FD074604E01D
:1025B000FFF760FDC01B022875D8686A8007F7D452
:1025C0002078400760D5E8690027C00008D4E86992
:1025D00040F08050E861E869012700F080500090E9
:1025E0005C480168C90513D40168834641F48071D1
:1025F0000160FFF73FFD824606E000BFFFF73AFDAE
:10260000A0EB0A0064284ED8DBF80000C005F5D521
:10261000E06801280AD008B1052813D0286A20F004
:1026200001002862286A20F0040002E0286A40F0D5
:1026300001002862E06841F2883B98B1FFF71AFD7B
:1026400082460BE0286A40F004002862EEE700BFF3
:10265000FFF710FDA0EB0A0159455AD8286A8007F8
:10266000F6D50CE0FFF706FD824605E0FFF702FD18
:10267000A0EB0A0159454CD8286A8007F6D41FB14F
:10268000E86920F08050E861E06988B36968C1F3C7
:102690008101022944D00228C6F8608004D0FFF7E7
:1026A000E9FC044638E034E0FFF7E4FC074604E0C8
:1026B000FFF7E0FCC01B02282BD828688001F7D464
:1026C000206AB0F5803F05D16868A16820F4003029
:1026D00008436860D4E908010843696821F474116B
:1026E00008436860C6F86090FFF7C4FC044606E043
:1026F00025E000BFFFF7BEFC001B022809D82868B0
:102700008001F7D51BE000BFFFF7B4FC001B0228D7
:1027100002D90320BDE8F88F28688001F4D40EE0C8
:102720000128F7D06868226A00F48031914204D110
:10273000616A00F47010884201D00120EAE70020AD
:10274000E8E70000001002400000424280044242DC
:102750000C0000200070004010B5401EB0F1807FDA
:1027600001D3012010BD4FF0E02460610F216017FC
:1027700000F094FA0020A06107202061002010BD25
:1027800070B5040004D094F84100002510B106E0B3
:10279000012070BD84F84050204600F023F824202A
:1027A00084F841002068C16821F40051C1602046CE
:1027B00000F0CAF92068016921F4904101612068A4
:1027C000416921F02A0141612068C16841F400514A
:1027D000C1606564202084F8410084F8420065638C
:1027E000002070BD30B585B000240094019402949F
:1027F000039400681449884224D11448816941F443
:1028000080418161816901F480410491816941F0D5
:102810000401816180690E4D00F0040004904FF4C2
:102820000070009002200190032003906946284622
:10283000FFF72AFB2815CDE90004694628460294D3
:10284000FFF722FB05B030BD003801400010024008
:10285000000801402DE9F843044690F841009846ED
:1028600016460D46202802D00220BDE8F88385B127
:102870007EB100206064212084F84100FFF7FAFB5C
:10288000A6848146E684A0682027B0F5805F02D048
:1028900003E00120E9E7206910B12E4600250EE093
:1028A00000260CE08021204600F0AAF9A8B9C6B1A4
:1028B00016F8010B21684860E08C401EE084E08C33
:1028C0004B464FF00002CDF800800028EAD14FF0CF
:1028D0004001204600F094F940B184F84170032093
:1028E000C3E735F8020BC0F30800E3E784F8417052
:1028F0000020BAE7FEE700003EB50024114800942E
:10290000019402940E4984600160047304750125EA
:1029100005614FF460214460C161FFF7E9F908B136
:10292000FFF766F90620CDE90005694602940548DF
:10293000FFF760F9002801D0FFF75AF93EBD00000B
:1029400000240140100000202DE9F04786B000244B
:1029500036480094019402940394816941F0100177
:102960008161816901F010010491816941F02001C8
:102970008161816901F020010491816941F00401C4
:102980008161816901F004010491816941F00801CC
:1029900081618069DFF8988000F008004FF40055ED
:1029A0000490002229464046FFF75EFBDFF8849042
:1029B000002280214846FFF757FBDFF87CA04FF448
:1029C0007047002239465046FFF74EFB009502261D
:1029D00001250396CDE9015469464046FFF754FAB4
:1029E0000320CDE90004694648460294FFF74CFAFB
:1029F0008020CDE90005CDE9024669464846FFF74B
:102A000043FA4FF44060CDE9000469465046029411
:102A1000FFF73AFA00970396CDE90154694650460C
:102A2000FFF732FA06B0BDE8F08700000010024060
:102A30000010014000080140000C01400C4810B596
:102A40000A4901604FF4E1314160002181600C22AC
:102A5000C160C0E904128161C161FFF791FE0028E5
:102A600003D0BDE81040FFF7C3B810BD00380140E7
:102A700040000020FEE7FEE770477047FFF700BB0D
:102A800030B593B028216846FDF70EFC14210AA842
:102A9000FDF70AFC002501200F9510951195010402
:102AA00012958DE8230004904FF4E010CDE9081052
:102AB000022407946846FFF7BFFC08B172B6FEE730
:102AC0000AA90F2081E831004FF48060CDE90D059F
:102AD00002210AA8FFF7D4FB08B172B6FEE74FF453
:102AE000004011900F940FA8FFF754FB002801D06D
:102AF00072B6FEE713B030BD704701680C3151E883
:102B0000002F22F4907241E80023002BF5D10168D8
:102B1000143151E8002F22F0010241E80023002B7C
:102B2000F5D1016B012909D101680C3151E8002F61
:102B300022F0100241E80023002BF5D1202180F87B
:102B4000421000210163704770B5044600680169B6
:102B5000E26821F44051114301612169A0680843F2
:102B6000616908432168CA6841F20C639A430243D1
:102B7000CA6020684169A26921F440711143416132
:102B80001E492068884202D1FFF720FC01E0FFF7D0
:102B90000DFC00EBC00101EB0012606864218000B5
:102BA000B2FBF0F3B3FBF1F36FF018067343B2FB23
:102BB000F0F5B2FBF0F605EB8305322303EB0515C8
:102BC000B5FBF1F5B6FBF1F605F0F00505EB0615E2
:102BD000B2FBF0F6B2FBF0F0B0FBF1F06FF01802D0
:102BE000504306EB800003EB0010B0FBF1F02168CE
:102BF00000F00F002844886070BD000000380140DC
:102C00002DE9F843984617460D460446089E24E0F1
:102C1000701C22D0FFF72EFAA0EB0800B0421AD8A1
:102C2000CEB12068C168490717D5802D15D0402D39
:102C300013D00168C94309070FD401680025406813
:102C400000902046FFF759FF0820606484F8405048
:102C50000120BDE8F8830320FBE72068006835EA1F
:102C6000000004D00020B842D2D00020F1E70120BB
:102C7000F9E7FEE7490050EAC12018BF04204A0DD9
:102C800018BF40F0010040F2FF72B2EB515F08BF85
:102C900040F00200012808BF052070470907090E0F
:102CA000002804DB00F1E02080F80014704700F0F9
:102CB0000F0000F1E02080F8141D704730380A281A
:102CC00001D201207047002070470000FFF7E0F9B3
:102CD000FFF7D6FEFFF738FEFFF70EFEFFF7AEFE5A
:102CE0000BA0FEF76DFF6420FFF7BCF80D4D4FF40D
:102CF0000054002221462846FFF7B6F96420FFF76A
:102D0000B1F8012221462846FFF7AEF9FEE70000A0
:102D10002D2D53797374656D2053746172742D2D4C
:102D20000D0A00000010014010B500290AD00878F3
:102D3000002807D005487844FEF704FB002801D09E
:102D4000002010BD0248784410BD00009A01000028
:102D50009201000010B500290AD00878002807D099
:102D600005487844FEF7EEFA002801D0002010BD97
:102D70000248784410BD00008A0100008201000072
:102D8000FDF7EDBEFEF722B80102020304050607B7
:102D900008090A0B0C0D0E0F1010000000000000B7
:102DA00000000102030406070809000000000102F8
:102DB0000304000000000000000000003031323346
:102DC000343536373839414243444546403058005F
:102DD0003031323334353637383961626364656691
:102DE00040307800040000080000000000000002ED
:102DF0000001000010303132333435363738396154
:102E0000626364656678700030313233343536374A
:102E100038394142434445465850000002400000C2
:102E2000000000A00000000005400000000000C8F5
:102E3000000000000C4000000000409C000000006A
:102E4000194000000020BCBE00000000344000001B
:102E5000BFC91B8E00000004B5400000504BCFD00E
:102E60006607E2CF010000006C4100003E8251AADB
:102E7000DFEEA73401000000D9420000DCB5A0E27B
:102E80003A301F97FFFFFFFFB4450000FD25A0C8A3
:102E9000E9A3C14FFFFFFFFFFF3F000000000080DC
:102EA00000000000FF3F0000000000800000000064
:102EB000FC2F00080000002010000000280100087E
:102EC0000C300008100000205807000044010008E2
:102ED0001C00000043000000F8FFFFFF0C00000092
:102EE0000E0000000F0000002E0000001001000086
:102EF00043000000F8FFFFFF0040404040404040DA
:102F000040404141414141404040404040404040BC
:102F10004040404040404040400502020202020260
:102F200002020202020202020220202020202020AF
:102F300020202002020202020202909090909090C3
:102F40001010101010101010101010101010101081
:102F500010101010020202020202888888888888F5
:102F600008080808080808080808080808080808E1
:102F700008080808020202024000000000000000E9
:102F80000000000000000000000000000000000041
:102F90000000000000000000000000000000000031
:102FA0000000000000000000000000000000000021
:102FB0000000000000000000000000000000000011
:102FC0000000000000000000000000000000000001
:102FD00000000000000000000000000000000000F1
:102FE00000000000000000000000000000000000E1
:102FF00000000000000000000000000001000000D0
:0C300000100000000000000000127A0028
:04000005080000ED02
:00000001FF
